:020000040800F2
:100000006806002089010008F5060008B50600080A
:10001000F1060008890400083D0B000800000000FC
:10002000000000000000000000000000310900088E
:10003000CD04000800000000F70600081D0A0008B3
:10004000A3010008A3010008A3010008A301000800
:10005000A3010008A3010008A3010008A3010008F0
:10006000A3010008A3010008A3010008A3010008E0
:10007000A3010008A3010008A3010008A3010008D0
:10008000A3010008A3010008A3010008A3010008C0
:10009000A3010008A3010008A3010008A3010008B0
:1000A000A3010008A3010008A3010008A3010008A0
:1000B000A3010008A3010008A3010008A301000890
:1000C000A3010008A3010008A3010008A301000880
:1000D000A3010008A3010008A3010008810A000889
:1000E000A3010008A3010008A301000800F002F822
:1000F00000F03AF80AA090E8000C82448344AAF188
:100100000107DA4501D100F02FF8AFF2090EBAE885
:100110000F0013F0010F18BFFB1A43F0010318473B
:10012000500F0000700F0000103A24BF78C878C14B
:10013000FAD8520724BF30C830C144BF04680C60ED
:10014000704700000023002400250026103A28BF35
:1001500078C1FBD8520728BF30C148BF0B60704739
:100160001FB51FBD10B510BD00F038F81146FFF7E0
:10017000F7FF00F0E7FC00F056F803B4FFF7F2FFDA
:1001800003BC00F0DDFC0000094880470948004737
:10019000FEE7FEE7FEE7FEE7FEE7FEE7FEE7FEE737
:1001A000FEE7FEE704480549054A064B7047000094
:1001B000210A0008ED000008680000206806002001
:1001C000680200206802002070477047704770473F
:1001D0007047000000487047080000207546FFF790
:1001E000F9FFAE4605006946534620F007008546F4
:1001F00018B020B5FFF7D6FFBDE820404FF000064D
:100200004FF000074FF000084FF0000B21F00701FE
:10021000AC46ACE8C009ACE8C009ACE8C009ACE841
:10022000C0098D46704710B50446AFF300802046E4
:10023000BDE81040FFF7A1BF08B50121082000F07C
:100240005BFA0121092000F057FA0121124800F061
:10025000E5F910208DF8030003208DF8020020201E
:10026000ADF8000069460D4800F04CF91020ADF8DB
:1002700000006946094800F045F98020ADF800000B
:100280006946064800F03EF94020ADF80000694696
:10029000024800F037F908BD00023000000C0140B0
:1002A00010B5FFF7C9FF00F001F810BD10B510211F
:1002B000154800F0FBF92021134800F0F7F9402120
:1002C000114800F0F3F940210F4800F0F1F9402106
:1002D0000D4800F0EBF910210B4800F0E7F9102170
:1002E000094800F0E5F91021074800F0DFF9202166
:1002F000054800F0DBF92021034800F0D9F920215E
:10030000014800F0D3F910BD000C01402DE9F05F69
:10031000834615461E46584A584B2846314600F03B
:10032000A9FD07460022564B00F01CFC05460E4670
:100330002846314600F06EFD82460AF0FF0900248F
:1003400017E049FA04F000F0010020B180214D4887
:1003500000F0AEF903E080214A4800F0A7F910212F
:10036000484800F0A5F91021464800F09FF9601CAC
:10037000C4B2082CE5DBCAF30729002417E049FAC8
:1003800004F000F0010020B180213E4800F090F917
:1003900003E080213B4800F089F91021394800F042
:1003A00087F91021374800F081F9601CC4B2082C8D
:1003B000E5DBCAF30749002417E049FA04F000F02E
:1003C000010020B180212F4800F072F903E0802164
:1003D0002C4800F06BF910212A4800F069F910212F
:1003E000284800F063F9601CC4B2082CE5DB4FEA32
:1003F0001A69002417E049FA04F000F0010020B166
:100400008021204800F054F903E080211D4800F0CD
:100410004DF910211B4800F04BF91021194800F04C
:1004200045F9601CC4B2082CE5DBD946002417E06E
:1004300049FA04F000F0010020B18021114800F0D9
:1004400037F903E080210F4800F030F910210D4802
:1004500000F02EF910210B4800F028F9601CC4B2FE
:10046000082CE5DB2021074800F022F9202105486F
:1004700000F01CF9BDE8F09F0000E0FFFFFFEF4136
:100480002A75A541000C014000BFFEE721B10268BA
:1004900042F00102026004E002684FF6FE731A4067
:1004A000026070470146486880B2704710B500216D
:1004B0000548FFF7EBFF202003493039486301214D
:1004C0000148FFF7E3FF10BD300002407047000015
:1004D0000549096821F01001034A116011460968B5
:1004E00001431160704700000020024001460020D7
:1004F000034A106800F0380008431060704700009D
:10050000002002402DE9F04102460025002600208F
:1005100000230024002791F803C00CF00F0591F888
:1005200003C00CF0100CBCF1000F03D091F802C016
:100530004CEA050591F800C0BCF1000F31D01468F9
:1005400000202BE04FF0010C0CFA00F3B1F800C0D2
:100550000CEA03069E4220D183004FF00F0C0CFAE8
:1005600003F7BC4305FA03FC4CEA040491F803C00A
:10057000BCF1280F06D14FF0010C0CFA00FCC2F8B8
:1005800014C00AE091F803C0BCF1480F05D14FF048
:10059000010C0CFA00FCC2F810C0401C0828D1D392
:1005A0001460B1F800C0BCF1FF0F34DD54680020C6
:1005B0002EE000F1080C4FF0010808FA0CF3B1F836
:1005C00000C00CEA03069E4221D183004FF00F0CBD
:1005D0000CFA03F7BC4305FA03FC4CEA040491F857
:1005E00003C0BCF1280F05D100F1080C08FA0CF883
:1005F000C2F8148091F803C0BCF1480F07D100F194
:10060000080C4FF0010808FA0CF8C2F81080401CE2
:100610000828CED35460BDE8F0810000F0B50A464A
:10062000002300240021002500F00046B6F1004F11
:1006300002D11D4EF16901E01B4E7168C0F3034504
:1006400083B200F44016B6F5401F08D121F0706166
:10065000154E766826F07066134F7E6012E000F447
:100660008016B6F5801F06D1032606FA05F4A143CD
:1006700041F0706106E0460D360103FA06F6B1431B
:1006800041F0706122B1460D360103FA06F631439E
:1006900000F00046B6F1004F02D1034EF16101E0D7
:1006A000014E7160F0BD00000000014041617047E3
:1006B0000161704700BFFEE708B50121042000F08A
:1006C0001BF84FF40060ADF8000010208DF8030017
:1006D00003208DF8020069460448FFF713FF4FF42A
:1006E00000610248FFF7E4FF08BD00000008014078
:1006F00000BFFEE77047704729B1064A926902437E
:10070000044B9A6104E0034A92698243014B9A6167
:10071000704700000010024010B500F037F84FF4A9
:10072000803000F08BF800F0E7F80446012C24D16B
:100730004FF4E011000400F0C5F8002000F072F85A
:10074000A00200F0A1F8002000F0AAF80220FFF7B4
:10075000CDFE1020FFF7BCFE012000F0ADF800BF79
:10076000392000F039F80028FAD0022000F0B8F85B
:1007700000BF00F04FF80828FBD101217C20FFF7D3
:10078000BBFF01210846FFF7B7FF10BD0F48006807
:1007900040F001000D490860084640680C490840D7
:1007A0000A494860084600680A4908400749086045
:1007B0000846006820F4802008600846406820F45D
:1007C000FE0048604FF41F00886070470010024030
:1007D0000000FFF8FFFFF6FE10B5014600220023DF
:1007E00000204A11012A02D1094C236806E0022A9E
:1007F00002D1074C236A01E0054C636A01F01F0235
:10080000012494401C400CB1012000E0002010BDE8
:10081000001002400248406800F00C0070470000E1
:100820000010024001460020034A506820F0F0000A
:1008300008435060704700000010024011490968E9
:1008400021F480310F4A11601146096821F480219A
:100850001160B0F5803F03D0B0F5802F0ED106E0D7
:100860000849096841F48031064A116007E00549EA
:10087000096841F4A021034A116000E000BF00BFF5
:10088000704700000010024001460020034A5068F3
:1008900020F4E06008435060704700000010024000
:1008A00001460020034A506820F4605040EAC1002D
:1008B0005060704700100240014908667047000010
:1008C0000000424202460020044B586820F47C108D
:1008D00042EA01031843014B586070470010024080
:1008E00001460020034A506820F00300084350608E
:1008F000704700000010024038B50020009000242E
:10090000002500BF3120FFF767FF05460098401C17
:1009100000900098B0F5A06F01D0002DF2D03120EA
:10092000FFF75AFF08B1012400E00024204638BD3B
:10093000704710B500F002F810BD00000CB50020A3
:10094000019000903348006840F4803031490860DD
:1009500000BF3048006800F4003000900198401C4F
:100960000190009818B90198B0F5A06FF1D129480D
:10097000006800F4003010B10120009001E0002078
:1009800000900098012843D12348006840F01000EF
:10099000214908600846006820F003000860084606
:1009A000006840F0020008601A4840681949486031
:1009B0000846406848600846406840F480604860E7
:1009C0000846406820F47C1048600846406840F4BF
:1009D000E81048600846006840F08070086000BF7A
:1009E0000C48006800F000700028F9D00948406801
:1009F00020F00300074948600846406840F00200C4
:100A0000486000BF0348406800F00C000828F9D196
:100A10000CBD0000001002400020024070470000A2
:100A200010B51348006840F00100114908600846FD
:100A30004068104908400E494860084600680E4961
:100A400008400B4908600846006820F480200860D0
:100A50000846406820F4FE0048604FF41F0088609C
:100A6000FFF767FF4FF000600449086010BD000009
:100A7000001002400000FFF8FFFFF6FE08ED00E066
:100A800010B540F22441144800F02EF8F0B113489C
:100A9000FFF708FDC0F120001149087008460078F2
:100AA000092803D101200F4908700DE00C48007897
:100AB000122803D102200B49087005E0084800788D
:100AC000032801D107490870FFF7F0FC02480088AD
:100AD0000148001D008810BD004800403000024061
:100AE000000000200200002070B502460024002310
:100AF0000025002040F66A16B14200D100BFC1F3C4
:100B0000421501F01F03012606FA03F3012D02D15D
:100B10009689334006E0022D02D1168A334001E067
:100B2000968A33400C12012606FA04F416883440E3
:100B300013B10CB1012000E0002070BD00BFFEE742
:100B400000BF7047FFF7E8FDFFF7B6FDFFF7A8FB12
:100B50000022034B0120FFF7D9FB00BFFEE7000096
:100B600084D787412DE9C04130B4DFF8A0C23CEA08
:100B7000111418BF3CEA131400F0EC8081EA03055D
:100B80001CEA111444EAD57418BF1CEA131500F0CE
:100B9000C780A4EB05044FF0004545EAC12145EAB2
:100BA000C32341EA505143EA525304F17F749942FE
:100BB00004F500344FEAC0204FEAC22208BF904239
:100BC00000F09C804FEA13650FF24016765D4FEA05
:100BD000134506FB05F7C7F1807706FB07F74FEAD9
:100BE000D737A7FB03687642C8F58038A7FB06CE47
:100BF00038BFA8F1010807FB08E64FF0000EA6FB7E
:100C0000028CE6FB03CEDCF1000CCEF1004E38BFC7
:100C1000AEF1010EA6FB0C584FF000074FF0000597
:100C2000E6FB0E87A1FB08C6A0FB07CE16EB0E065F
:100C300045F10005E1FB076515F1E04E7EBFA4F527
:100C400080345FEA46066D4116F1800745F10005E4
:100C50004FEA17274FEA066647EA0567A6F1DE4620
:100C6000B6F1805F4FEA15251FD9384624F0010CF4
:100C700005EBC471BCF1FE6F01EB0C1102D8F0BCA6
:100C8000BDE8008124425CBF01F5801E9EEAC47F5E
:100C900002D4F0BCBDE80081244238D4F0BCA1F1FC
:100CA000C041BDE8004100F0DDB94FEAD22242EA7E
:100CB00043524FEAD323A7FB02864FEAD02040EAF3
:100CC000415007FB03661EEA0E0F4FEAD12105FBD8
:100CD000026658BFA6EB0056B6EB00564FEA520E1E
:100CE0004EEAC37E18EB0E0E56EB530EBDD518EB35
:100CF00002085E417F1C55F10005B6E74FF48015F0
:100D00004FF000074FF000064FF00008ADE7F0BCD1
:100D10004FF0000001F1C04101F00041BDE8008149
:100D200011EA0C1F0CEA131500D00CE013EA0C1F9B
:100D300000F025804FF00000F0BC81EA030101F0D3
:100D40000041BDE80081F0BCBDE8004181EA03013B
:100D500000F088B9F0BCBDE8004170B500F034F98E
:100D6000097EFC3E00F007B881EA03014FF0000065
:100D700001F00041704781EA030100F073B9F0BC53
:100D8000BDE800414FF0000021497047FFFDFBF92D
:100D9000F7F5F4F2F0EEEDEBE9E8E6E4E3E1E0DEAE
:100DA000DDDBDAD8D7D5D4D3D1D0CFCDCCCBCAC820
:100DB000C7C6C5C4C2C1C0BFBEBDBCBBBAB9B8B747
:100DC000B6B5B4B3B2B1B0AFAEADACABAAA9A8A83A
:100DD000A7A6A5A4A3A3A2A1A09F9F9E9D9C9C9B08
:100DE0009A999998979796959594939392919190B3
:100DF0008F8F8E8E8D8C8C8B8B8A89898888878744
:100E00008685858484838382828181800000FF07B8
:100E10000000F87F4FEA41034FEA5353A3F5806384
:100E2000D3F11E03C8BFD3F1210C0CDD4FF00042FB
:100E300042EAC12242EA505232FA03FC8CEAE17CD7
:100E4000ACEBE1707047102BC4BF0020704703F576
:100E5000787CBCF1FF3F04D06FF0004282EA2100B1
:100E6000704770B500F0B0F84992248000207047B8
:100E7000F2E70000DFF848C170B51CEA111E1EBF82
:100E80001CEA13159EEA0C0F95EA0C0F00F06F8018
:100E900081EA030423EA4C134EEAD47E21EA4C1182
:100EA00041F4801143F48013AE44A1FB024CA0FB3B
:100EB0000365AEF17F7E361955EB0C05A1FB034CA3
:100EC0004CF10003A0FB021C16EB0C06654153F12C
:100ED0000003094218BF46F0010613F4007F0BD14E
:100EE0004FEA03314FEA0530340341EA155140EA35
:100EF00016506FF003020AE04FEAC3214FEAC52003
:100F0000F40241EA555140EA56506FF0020202EBFA
:100F10002E4201EB025585EACE710AD05FEA440CFD
:100F200018BF24F0004450F1000041F1000120EA14
:100F3000D47040F2FE7C624500D270BDA84214BF5E
:100F40004FF080444FF04044002E08BF0024BEF113
:100F5000806FA8BFA1F1C041BDE8704080F28280DF
:100F60004FF0000001F1C04101F0004170479EEADE
:100F70000C0F0CEA131518BF95EA0C0F06D04FF0B2
:100F8000000081EA030E0EF0004170BD00F01CF875
:100F90008900013E00F007B800F009B84FEA430CA1
:100FA0005FEA5C5C08D081EA030100F05BB84FEABD
:100FB000410C5FEA5C5CF6D14FF0000001497047DC
:100FC0000000FF070000F87F0EF1020E2EF0030E66
:100FD0005EF8046B364205D4012A43EB030515F590
:100FE000001F12D8012841EB010C1CF5001F0CD882
:100FF0000ED14FEAD17C15F5001F0CEB4C0C0CF117
:10100000020C08BF4CEBD37C04E04FF0080C01E06D
:101010004FEAD37C0CEB4C0526FA05F606F00706E2
:10102000B6F1040C06D20EEB860CBDE870404CF015
:10103000010C6047DFE80CF0090B02024FF00041A1
:101040004FF00000A1F5002170BD1946104601289F
:1010500051EB010418BFD4F5001484BF002001F047
:10106000004170BD0808A0F500114FEA310170473A
:10107000901000080000002008000000280100086F
:1010800098100008080000206006000044010008D5
:08109000000000000000000058
:04000005080000ED02
:00000001FF
